{
  "contractName": "NFTDutchAuction",
  "abi": [
    {
      "constant": true,
      "inputs": [],
      "name": "auctionId",
      "outputs": [
        {
          "name": "",
          "type": "uint64"
        }
      ],
      "payable": false,
      "stateMutability": "view",
      "type": "function"
    },
    {
      "constant": true,
      "inputs": [],
      "name": "NFTContract",
      "outputs": [
        {
          "name": "",
          "type": "address"
        }
      ],
      "payable": false,
      "stateMutability": "view",
      "type": "function"
    },
    {
      "inputs": [
        {
          "name": "_NFTAddress",
          "type": "address"
        }
      ],
      "payable": false,
      "stateMutability": "nonpayable",
      "type": "constructor"
    },
    {
      "payable": false,
      "stateMutability": "nonpayable",
      "type": "fallback"
    },
    {
      "anonymous": false,
      "inputs": [
        {
          "indexed": false,
          "name": "auctionId",
          "type": "uint64"
        },
        {
          "indexed": false,
          "name": "tokenId",
          "type": "uint256"
        },
        {
          "indexed": false,
          "name": "startingPrice",
          "type": "uint256"
        },
        {
          "indexed": false,
          "name": "endingPrice",
          "type": "uint256"
        },
        {
          "indexed": false,
          "name": "duration",
          "type": "uint256"
        }
      ],
      "name": "AuctionCreated",
      "type": "event"
    },
    {
      "anonymous": false,
      "inputs": [
        {
          "indexed": false,
          "name": "auctionId",
          "type": "uint64"
        },
        {
          "indexed": false,
          "name": "tokenId",
          "type": "uint256"
        }
      ],
      "name": "AuctionCancelled",
      "type": "event"
    },
    {
      "anonymous": false,
      "inputs": [
        {
          "indexed": false,
          "name": "auctionId",
          "type": "uint64"
        },
        {
          "indexed": false,
          "name": "tokenId",
          "type": "uint256"
        },
        {
          "indexed": false,
          "name": "totalPrice",
          "type": "uint256"
        },
        {
          "indexed": false,
          "name": "winner",
          "type": "address"
        }
      ],
      "name": "AuctionSuccessful",
      "type": "event"
    },
    {
      "constant": false,
      "inputs": [
        {
          "name": "_tokenId",
          "type": "uint256"
        },
        {
          "name": "_startingPrice",
          "type": "uint256"
        },
        {
          "name": "_endingPrice",
          "type": "uint256"
        },
        {
          "name": "_duration",
          "type": "uint256"
        }
      ],
      "name": "createAuction",
      "outputs": [],
      "payable": false,
      "stateMutability": "nonpayable",
      "type": "function"
    },
    {
      "constant": true,
      "inputs": [
        {
          "name": "_auctionId",
          "type": "uint64"
        }
      ],
      "name": "getAuctionByAuctionId",
      "outputs": [
        {
          "name": "id",
          "type": "uint64"
        },
        {
          "name": "seller",
          "type": "address"
        },
        {
          "name": "tokenId",
          "type": "uint256"
        },
        {
          "name": "startingPrice",
          "type": "uint256"
        },
        {
          "name": "endingPrice",
          "type": "uint256"
        },
        {
          "name": "duration",
          "type": "uint256"
        },
        {
          "name": "startedAt",
          "type": "uint256"
        }
      ],
      "payable": false,
      "stateMutability": "view",
      "type": "function"
    },
    {
      "constant": true,
      "inputs": [
        {
          "name": "_tokenId",
          "type": "uint256"
        }
      ],
      "name": "getAuctionByTokenId",
      "outputs": [
        {
          "name": "id",
          "type": "uint64"
        },
        {
          "name": "seller",
          "type": "address"
        },
        {
          "name": "tokenId",
          "type": "uint256"
        },
        {
          "name": "startingPrice",
          "type": "uint256"
        },
        {
          "name": "endingPrice",
          "type": "uint256"
        },
        {
          "name": "duration",
          "type": "uint256"
        },
        {
          "name": "startedAt",
          "type": "uint256"
        }
      ],
      "payable": false,
      "stateMutability": "view",
      "type": "function"
    },
    {
      "constant": false,
      "inputs": [
        {
          "name": "_auctionId",
          "type": "uint64"
        }
      ],
      "name": "cancelAuctionByAuctionId",
      "outputs": [],
      "payable": false,
      "stateMutability": "nonpayable",
      "type": "function"
    },
    {
      "constant": false,
      "inputs": [
        {
          "name": "_tokenId",
          "type": "uint256"
        }
      ],
      "name": "cancelAuctionByTokenId",
      "outputs": [],
      "payable": false,
      "stateMutability": "nonpayable",
      "type": "function"
    },
    {
      "constant": false,
      "inputs": [
        {
          "name": "_tokenId",
          "type": "uint256"
        }
      ],
      "name": "bid",
      "outputs": [],
      "payable": true,
      "stateMutability": "payable",
      "type": "function"
    },
    {
      "constant": true,
      "inputs": [
        {
          "name": "_auctionId",
          "type": "uint64"
        }
      ],
      "name": "getCurrentPriceByAuctionId",
      "outputs": [
        {
          "name": "",
          "type": "uint256"
        }
      ],
      "payable": false,
      "stateMutability": "view",
      "type": "function"
    },
    {
      "constant": true,
      "inputs": [
        {
          "name": "_tokenId",
          "type": "uint256"
        }
      ],
      "name": "getCurrentPriceByTokenId",
      "outputs": [
        {
          "name": "",
          "type": "uint256"
        }
      ],
      "payable": false,
      "stateMutability": "view",
      "type": "function"
    }
  ],
  "bytecode": "0x608060405234801561001057600080fd5b50604051602080611b0d83398101806040528101908080519060200190929190505050806000806101000a81548173ffffffffffffffffffffffffffffffffffffffff021916908373ffffffffffffffffffffffffffffffffffffffff16021790555050611a8a806100836000396000f3006080604052600436106100a4576000357c0100000000000000000000000000000000000000000000000000000000900463ffffffff16806310782f8f146100b35780631ac2a325146100f257806331c2273b1461013357806339d1ee401461018a578063431f21da146101c1578063454a2ab31461020c5780634acc200f1461022c5780635857b86f14610259578063774132671461030e578063b0f4aa7d146103b9575b3480156100b057600080fd5b50005b3480156100bf57600080fd5b506100c8610404565b604051808267ffffffffffffffff1667ffffffffffffffff16815260200191505060405180910390f35b3480156100fe57600080fd5b5061011d6004803603810190808035906020019092919050505061041e565b6040518082815260200191505060405180910390f35b34801561013f57600080fd5b50610148610447565b604051808273ffffffffffffffffffffffffffffffffffffffff1673ffffffffffffffffffffffffffffffffffffffff16815260200191505060405180910390f35b34801561019657600080fd5b506101bf600480360381019080803567ffffffffffffffff16906020019092919050505061046c565b005b3480156101cd57600080fd5b5061020a60048036038101908080359060200190929190803590602001909291908035906020019092919080359060200190929190505050610751565b005b61022a60048036038101908080359060200190929190505050610d7c565b005b34801561023857600080fd5b5061025760048036038101908080359060200190929190505050611205565b005b34801561026557600080fd5b5061028e600480360381019080803567ffffffffffffffff169060200190929190505050611502565b604051808867ffffffffffffffff1667ffffffffffffffff1681526020018773ffffffffffffffffffffffffffffffffffffffff1673ffffffffffffffffffffffffffffffffffffffff16815260200186815260200185815260200184815260200183815260200182815260200197505050505050505060405180910390f35b34801561031a57600080fd5b506103396004803603810190808035906020019092919050505061167d565b604051808867ffffffffffffffff1667ffffffffffffffff1681526020018773ffffffffffffffffffffffffffffffffffffffff1673ffffffffffffffffffffffffffffffffffffffff16815260200186815260200185815260200184815260200183815260200182815260200197505050505050505060405180910390f35b3480156103c557600080fd5b506103ee600480360381019080803567ffffffffffffffff1690602001909291905050506117e4565b6040518082815260200191505060405180910390f35b600060149054906101000a900467ffffffffffffffff1681565b60008060016000848152602001908152602001600020905061043f81611821565b915050919050565b6000809054906101000a900473ffffffffffffffffffffffffffffffffffffffff1681565b6000600260008367ffffffffffffffff1667ffffffffffffffff168152602001908152602001600020905060008160030160089054906101000a900467ffffffffffffffff1667ffffffffffffffff161115156104c857600080fd5b8060000160089054906101000a900473ffffffffffffffffffffffffffffffffffffffff1673ffffffffffffffffffffffffffffffffffffffff163373ffffffffffffffffffffffffffffffffffffffff1614151561052657600080fd5b600260008367ffffffffffffffff1667ffffffffffffffff168152602001908152602001600020600080820160006101000a81549067ffffffffffffffff02191690556000820160086101000a81549073ffffffffffffffffffffffffffffffffffffffff021916905560018201600090556002820160006101000a8154906fffffffffffffffffffffffffffffffff02191690556002820160106101000a8154906fffffffffffffffffffffffffffffffff02191690556003820160006101000a81549067ffffffffffffffff02191690556003820160086101000a81549067ffffffffffffffff021916905550506001600082600101548152602001908152602001600020600080820160006101000a81549067ffffffffffffffff02191690556000820160086101000a81549073ffffffffffffffffffffffffffffffffffffffff021916905560018201600090556002820160006101000a8154906fffffffffffffffffffffffffffffffff02191690556002820160106101000a8154906fffffffffffffffffffffffffffffffff02191690556003820160006101000a81549067ffffffffffffffff02191690556003820160086101000a81549067ffffffffffffffff021916905550507f4e565c4b0659864b913ec6bfad5ec2b69d7e50d41fe38f4367884fefcc217e4b828260010154604051808367ffffffffffffffff1667ffffffffffffffff1681526020018281526020019250505060405180910390a15050565b6107596119c8565b6fffffffffffffffffffffffffffffffff8410151561077757600080fd5b6fffffffffffffffffffffffffffffffff8310151561079557600080fd5b67ffffffffffffffff82111515156107ac57600080fd5b603c82101515156107bc57600080fd5b3373ffffffffffffffffffffffffffffffffffffffff166000809054906101000a900473ffffffffffffffffffffffffffffffffffffffff1673ffffffffffffffffffffffffffffffffffffffff16636352211e876040518263ffffffff167c010000000000000000000000000000000000000000000000000000000002815260040180828152602001915050602060405180830381600087803b15801561086357600080fd5b505af1158015610877573d6000803e3d6000fd5b505050506040513d602081101561088d57600080fd5b810190808051906020019092919050505073ffffffffffffffffffffffffffffffffffffffff161415156108c057600080fd5b60e060405190810160405280600060149054906101000a900467ffffffffffffffff1667ffffffffffffffff1681526020013373ffffffffffffffffffffffffffffffffffffffff168152602001868152602001856fffffffffffffffffffffffffffffffff168152602001846fffffffffffffffffffffffffffffffff1681526020018367ffffffffffffffff1681526020014267ffffffffffffffff168152509050806001600087815260200190815260200160002060008201518160000160006101000a81548167ffffffffffffffff021916908367ffffffffffffffff16021790555060208201518160000160086101000a81548173ffffffffffffffffffffffffffffffffffffffff021916908373ffffffffffffffffffffffffffffffffffffffff1602179055506040820151816001015560608201518160020160006101000a8154816fffffffffffffffffffffffffffffffff02191690836fffffffffffffffffffffffffffffffff16021790555060808201518160020160106101000a8154816fffffffffffffffffffffffffffffffff02191690836fffffffffffffffffffffffffffffffff16021790555060a08201518160030160006101000a81548167ffffffffffffffff021916908367ffffffffffffffff16021790555060c08201518160030160086101000a81548167ffffffffffffffff021916908367ffffffffffffffff16021790555090505080600260008060149054906101000a900467ffffffffffffffff1667ffffffffffffffff1667ffffffffffffffff16815260200190815260200160002060008201518160000160006101000a81548167ffffffffffffffff021916908367ffffffffffffffff16021790555060208201518160000160086101000a81548173ffffffffffffffffffffffffffffffffffffffff021916908373ffffffffffffffffffffffffffffffffffffffff1602179055506040820151816001015560608201518160020160006101000a8154816fffffffffffffffffffffffffffffffff02191690836fffffffffffffffffffffffffffffffff16021790555060808201518160020160106101000a8154816fffffffffffffffffffffffffffffffff02191690836fffffffffffffffffffffffffffffffff16021790555060a08201518160030160006101000a81548167ffffffffffffffff021916908367ffffffffffffffff16021790555060c08201518160030160086101000a81548167ffffffffffffffff021916908367ffffffffffffffff1602179055509050507fe1029fa83822b369323368b3cdcdf26a8541455d3d7f918f30b255fc75aaea92600060149054906101000a900467ffffffffffffffff168683606001516fffffffffffffffffffffffffffffffff1684608001516fffffffffffffffffffffffffffffffff168560a0015167ffffffffffffffff16604051808667ffffffffffffffff1667ffffffffffffffff1681526020018581526020018481526020018381526020018281526020019550505050505060405180910390a16000601481819054906101000a900467ffffffffffffffff168092919060010191906101000a81548167ffffffffffffffff021916908367ffffffffffffffff160217905550505050505050565b600080600080600060016000878152602001908152602001600020945060008560030160089054906101000a900467ffffffffffffffff1667ffffffffffffffff16111515610dca57600080fd5b610dd385611821565b9350833410151515610de457600080fd5b8460000160089054906101000a900473ffffffffffffffffffffffffffffffffffffffff1692508460000160009054906101000a900467ffffffffffffffff16915060016000878152602001908152602001600020600080820160006101000a81549067ffffffffffffffff02191690556000820160086101000a81549073ffffffffffffffffffffffffffffffffffffffff021916905560018201600090556002820160006101000a8154906fffffffffffffffffffffffffffffffff02191690556002820160106101000a8154906fffffffffffffffffffffffffffffffff02191690556003820160006101000a81549067ffffffffffffffff02191690556003820160086101000a81549067ffffffffffffffff02191690555050600260008660000160009054906101000a900467ffffffffffffffff1667ffffffffffffffff1667ffffffffffffffff168152602001908152602001600020600080820160006101000a81549067ffffffffffffffff02191690556000820160086101000a81549073ffffffffffffffffffffffffffffffffffffffff021916905560018201600090556002820160006101000a8154906fffffffffffffffffffffffffffffffff02191690556002820160106101000a8154906fffffffffffffffffffffffffffffffff02191690556003820160006101000a81549067ffffffffffffffff02191690556003820160086101000a81549067ffffffffffffffff02191690555050600084111561105e578390508273ffffffffffffffffffffffffffffffffffffffff166108fc829081150290604051600060405180830381858888f1935050505015801561105c573d6000803e3d6000fd5b505b6000809054906101000a900473ffffffffffffffffffffffffffffffffffffffff1673ffffffffffffffffffffffffffffffffffffffff166323b872dd8433896040518463ffffffff167c0100000000000000000000000000000000000000000000000000000000028152600401808473ffffffffffffffffffffffffffffffffffffffff1673ffffffffffffffffffffffffffffffffffffffff1681526020018373ffffffffffffffffffffffffffffffffffffffff1673ffffffffffffffffffffffffffffffffffffffff1681526020018281526020019350505050600060405180830381600087803b15801561115657600080fd5b505af115801561116a573d6000803e3d6000fd5b505050507fddebda14986ae06e0f41540a1c5d1bae82103664c57716cb74344e408f5ab83782878633604051808567ffffffffffffffff1667ffffffffffffffff1681526020018481526020018381526020018273ffffffffffffffffffffffffffffffffffffffff1673ffffffffffffffffffffffffffffffffffffffff16815260200194505050505060405180910390a1505050505050565b600060016000838152602001908152602001600020905060008160030160089054906101000a900467ffffffffffffffff1667ffffffffffffffff1611151561124d57600080fd5b8060000160089054906101000a900473ffffffffffffffffffffffffffffffffffffffff1673ffffffffffffffffffffffffffffffffffffffff163373ffffffffffffffffffffffffffffffffffffffff161415156112ab57600080fd5b600260008260000160009054906101000a900467ffffffffffffffff1667ffffffffffffffff1667ffffffffffffffff168152602001908152602001600020600080820160006101000a81549067ffffffffffffffff02191690556000820160086101000a81549073ffffffffffffffffffffffffffffffffffffffff021916905560018201600090556002820160006101000a8154906fffffffffffffffffffffffffffffffff02191690556002820160106101000a8154906fffffffffffffffffffffffffffffffff02191690556003820160006101000a81549067ffffffffffffffff02191690556003820160086101000a81549067ffffffffffffffff0219169055505060016000838152602001908152602001600020600080820160006101000a81549067ffffffffffffffff02191690556000820160086101000a81549073ffffffffffffffffffffffffffffffffffffffff021916905560018201600090556002820160006101000a8154906fffffffffffffffffffffffffffffffff02191690556002820160106101000a8154906fffffffffffffffffffffffffffffffff02191690556003820160006101000a81549067ffffffffffffffff02191690556003820160086101000a81549067ffffffffffffffff021916905550507f4e565c4b0659864b913ec6bfad5ec2b69d7e50d41fe38f4367884fefcc217e4b8160000160009054906101000a900467ffffffffffffffff168260010154604051808367ffffffffffffffff1667ffffffffffffffff1681526020018281526020019250505060405180910390a15050565b600080600080600080600080600260008a67ffffffffffffffff1667ffffffffffffffff168152602001908152602001600020905060008160030160089054906101000a900467ffffffffffffffff1667ffffffffffffffff1611151561156857600080fd5b8060000160009054906101000a900467ffffffffffffffff168160000160089054906101000a900473ffffffffffffffffffffffffffffffffffffffff1682600101548360020160009054906101000a90046fffffffffffffffffffffffffffffffff168460020160109054906101000a90046fffffffffffffffffffffffffffffffff168560030160009054906101000a900467ffffffffffffffff168660030160089054906101000a900467ffffffffffffffff16836fffffffffffffffffffffffffffffffff169350826fffffffffffffffffffffffffffffffff1692508167ffffffffffffffff1691508067ffffffffffffffff169050975097509750975097509750975050919395979092949650565b600080600080600080600080600160008a8152602001908152602001600020905060008160030160089054906101000a900467ffffffffffffffff1667ffffffffffffffff161115156116cf57600080fd5b8060000160009054906101000a900467ffffffffffffffff168160000160089054906101000a900473ffffffffffffffffffffffffffffffffffffffff1682600101548360020160009054906101000a90046fffffffffffffffffffffffffffffffff168460020160109054906101000a90046fffffffffffffffffffffffffffffffff168560030160009054906101000a900467ffffffffffffffff168660030160089054906101000a900467ffffffffffffffff16836fffffffffffffffffffffffffffffffff169350826fffffffffffffffffffffffffffffffff1692508167ffffffffffffffff1691508067ffffffffffffffff169050975097509750975097509750975050919395979092949650565b600080600260008467ffffffffffffffff1667ffffffffffffffff168152602001908152602001600020905061181981611821565b915050919050565b6000806000806000808660030160089054906101000a900467ffffffffffffffff1667ffffffffffffffff1611151561185957600080fd5b600093508560030160089054906101000a900467ffffffffffffffff1667ffffffffffffffff16420393508560030160009054906101000a900467ffffffffffffffff1667ffffffffffffffff16841015156118e9578560020160109054906101000a90046fffffffffffffffffffffffffffffffff166fffffffffffffffffffffffffffffffff1694506119bf565b8560020160009054906101000a90046fffffffffffffffffffffffffffffffff166fffffffffffffffffffffffffffffffff168660020160109054906101000a90046fffffffffffffffffffffffffffffffff166fffffffffffffffffffffffffffffffff160392508560030160009054906101000a900467ffffffffffffffff1667ffffffffffffffff1684840281151561198157fe5b059150818660020160009054906101000a90046fffffffffffffffffffffffffffffffff166fffffffffffffffffffffffffffffffff160190508094505b50505050919050565b60e060405190810160405280600067ffffffffffffffff168152602001600073ffffffffffffffffffffffffffffffffffffffff1681526020016000815260200160006fffffffffffffffffffffffffffffffff16815260200160006fffffffffffffffffffffffffffffffff168152602001600067ffffffffffffffff168152602001600067ffffffffffffffff16815250905600a165627a7a72305820f1c9c467c112addac60c0dcfdeb932e92a32e19aa21671926d24ff76ebddee730029",
  "source": "pragma solidity ^0.4.24;\n\nimport \"./tokens/NFToken.sol\";\n\ncontract NFTDutchAuction {\n\n  struct Auction {\n      uint64 id;\n      address seller;\n      uint256 tokenId;\n      uint128 startingPrice; // wei\n      uint128 endingPrice; // wei\n      uint64 duration; // seconds\n      uint64 startedAt; // time\n  }\n\n  ERC721 public NFTContract;\n\n  uint64 public auctionId; // max is 18446744073709551615\n\n  mapping (uint256 => Auction) internal tokenIdToAuction;\n  mapping (uint64 => Auction) internal auctionIdToAuction;\n  // TODO: are arrays of structs even possible?\n  //       use this for making auctions discoverable\n  //mapping(address => Auction[]) internal ownerToAuction;\n  //mapping(uint256 => uint256) internal auctionIdToOwnerIndex;\n\n  event AuctionCreated(uint64 auctionId, uint256 tokenId,\n                      uint256 startingPrice, uint256 endingPrice, uint256 duration);\n  event AuctionCancelled(uint64 auctionId, uint256 tokenId);\n  event AuctionSuccessful(uint64 auctionId, uint256 tokenId, uint256 totalPrice, address winner);\n\n  constructor(address _NFTAddress) public {\n      NFTContract = ERC721(_NFTAddress);\n  }\n\n  // return ether that is sent to this contract\n  function() external {}\n\n  function createAuction(\n      uint256 _tokenId, uint256 _startingPrice,\n      uint256 _endingPrice, uint256 _duration) public {\n      // check storage requirements\n      require(_startingPrice < 340282366920938463463374607431768211455); // 128 bits\n      require(_endingPrice < 340282366920938463463374607431768211455); // 128 bits\n      require(_duration <= 18446744073709551615); // 64 bits\n\n      require(_duration >= 1 minutes);\n      require(NFTContract.ownerOf(_tokenId) == msg.sender);\n\n      Auction memory auction = Auction(\n          uint64(auctionId),\n          msg.sender,\n          uint256(_tokenId),\n          uint128(_startingPrice),\n          uint128(_endingPrice),\n          uint64(_duration),\n          uint64(now)\n      );\n\n      tokenIdToAuction[_tokenId] = auction;\n      auctionIdToAuction[auctionId] = auction;\n\n      emit AuctionCreated(\n          uint64(auctionId),\n          uint256(_tokenId),\n          uint256(auction.startingPrice),\n          uint256(auction.endingPrice),\n          uint256(auction.duration)\n      );\n\n      auctionId++;\n  }\n\n  function getAuctionByAuctionId(uint64 _auctionId) public view returns (\n      uint64 id,\n      address seller,\n      uint256 tokenId,\n      uint256 startingPrice,\n      uint256 endingPrice,\n      uint256 duration,\n      uint256 startedAt\n  ) {\n      Auction storage auction = auctionIdToAuction[_auctionId];\n      require(auction.startedAt > 0);\n      return (\n          auction.id,\n          auction.seller,\n          auction.tokenId,\n          auction.startingPrice,\n          auction.endingPrice,\n          auction.duration,\n          auction.startedAt\n      );\n  }\n\n  function getAuctionByTokenId(uint256 _tokenId) public view returns (\n      uint64 id,\n      address seller,\n      uint256 tokenId,\n      uint256 startingPrice,\n      uint256 endingPrice,\n      uint256 duration,\n      uint256 startedAt\n  ) {\n      Auction storage auction = tokenIdToAuction[_tokenId];\n      require(auction.startedAt > 0);\n      return (\n          auction.id,\n          auction.seller,\n          auction.tokenId,\n          auction.startingPrice,\n          auction.endingPrice,\n          auction.duration,\n          auction.startedAt\n      );\n  }\n\n  function cancelAuctionByAuctionId(uint64 _auctionId) public {\n      Auction storage auction = auctionIdToAuction[_auctionId];\n\n      require(auction.startedAt > 0);\n      require(msg.sender == auction.seller);\n\n      delete auctionIdToAuction[_auctionId];\n      delete tokenIdToAuction[auction.tokenId];\n\n      emit AuctionCancelled(_auctionId, auction.tokenId);\n  }\n\n  function cancelAuctionByTokenId(uint256 _tokenId) public {\n      Auction storage auction = tokenIdToAuction[_tokenId];\n\n      require(auction.startedAt > 0);\n      require(msg.sender == auction.seller);\n\n      delete auctionIdToAuction[auction.id];\n      delete tokenIdToAuction[_tokenId];\n\n      emit AuctionCancelled(auction.id, auction.tokenId);\n  }\n\n  function bid(uint256 _tokenId) public payable {\n      Auction storage auction = tokenIdToAuction[_tokenId];\n      require(auction.startedAt > 0);\n\n      uint256 price = getCurrentPrice(auction);\n      require(msg.value >= price);\n\n      address seller = auction.seller;\n      uint64 auctionId_temp = auction.id;\n\n      delete tokenIdToAuction[_tokenId];\n      delete auctionIdToAuction[auction.id];\n\n      if (price > 0) {\n          uint256 sellerProceeds = price;\n          seller.transfer(sellerProceeds);\n      }\n\n      NFTContract.transferFrom(seller, msg.sender, _tokenId);\n\n      emit AuctionSuccessful(auctionId_temp, _tokenId, price, msg.sender);\n  }\n\n  function getCurrentPriceByAuctionId(uint64 _auctionId) public view returns (uint256) {\n      Auction storage auction = auctionIdToAuction[_auctionId];\n      return getCurrentPrice(auction);\n  }\n\n  function getCurrentPriceByTokenId(uint256 _tokenId) public view returns (uint256) {\n      Auction storage auction = tokenIdToAuction[_tokenId];\n      return getCurrentPrice(auction);\n  }\n\n  function getCurrentPrice(Auction storage _auction) internal view returns (uint256) {\n      require(_auction.startedAt > 0);\n      uint256 secondsPassed = 0;\n\n      secondsPassed = now - _auction.startedAt;\n\n      if (secondsPassed >= _auction.duration) {\n          return _auction.endingPrice;\n      } else {\n          int256 totalPriceChange = int256(_auction.endingPrice) - int256(_auction.startingPrice);\n\n          int256 currentPriceChange = totalPriceChange * int256(secondsPassed) / int256(_auction.duration);\n\n          int256 currentPrice = int256(_auction.startingPrice) + currentPriceChange;\n\n          return uint256(currentPrice);\n      }\n  }\n}\n",
  "sourcePath": "/Users/gayar/newBSC/ssteiger-nft-auction/contracts/NFTDutchAuction.sol",
  "compiler": {
    "name": "solc",
    "version": "0.4.26+commit.4563c3fc.Emscripten.clang"
  },
  "schemaVersion": "3.4.6",
  "updatedAt": "2022-03-23T11:10:58.231Z",
  "networkType": "ethereum",
  "devdoc": {
    "methods": {}
  },
  "userdoc": {
    "methods": {}
  }
}